:020000000328D3
:10000600831603138601831286010130F100003046
:10001600F2008030F000803072067002031D152851
:100026007108323C031C302806140330FC001230E1
:10003600FD00FD0B1C28FC0B1C28000006103230AE
:10004600FC00DD30FD00FD0B2628FC0B26280000F9
:100056000000F10A0319F20A0C280330FB000830ED
:10006600FC007730FD00FD0B3628FC0B3628FB0B19
:1000760036280130F1000030F2008030F000803088
:1000860072067002031D49287108323C031C64285D
:1000960006140430FC00E430FD00FD0B5028FC0B78
:1000A6005028000006103130FC000B30FD00FD0B1F
:1000B6005A28FC0B5A2800000000F10A0319F20A1C
:1000C60040280330FB000830FC007730FD00FD0BB4
:1000D6006A28FC0B6A28FB0B6A280130F100003005
:1000E600F2008030F000803072067002031D7D2819
:1000F6007108323C031C982806140630FC00B53003
:10010600FD00FD0B8428FC0B84280000000006106F
:100116002F30FC003A30FD00FD0B8F28FC0B8F289A
:100126000000F10A0319F20A74280330FB000830B4
:10013600FC007730FD00FD0B9E28FC0B9E28FB0B78
:060146009E280828A528F0
:02400E004A2F37
:00000001FF
