:020000001628C0
:0E000600831203132B088A002A0882000800C8
:1000140003208A110A128000840AAA0A0319AB0A6F
:08002400F003031D0A28080087
:10002C00C03083120313A000F930A100A430A20049
:10003C00B030A3009930A4009230A5008230A60005
:10004C00F830A7008030A8009030A900AC018316CE
:10005C008601FF3083128600FF3083168800FF3044
:10006C0083128800081C51280330FB000830FC0068
:10007C007730FD00FD0B4028FC0B4028FB0B402883
:10008C00081C512880302C06F0008030093A700290
:10009C0003185128AC0A881C6A280330FB0008306E
:1000AC00FC007730FD00FD0B5928FC0B5928FB0B8D
:1000BC005928881C6A288030003AF00080302C06C1
:1000CC00700203186A28AC032C08203E8400000838
:0600DC00860038287028A0
:02400E004A2F37
:00000001FF
