:02000000AB282B
:10000600710DF80DF90D7408F8027508031C750FCB
:10001600F902F00DF10D0F30FC00710DF80DF90D20
:100026007408701C1C28F8027508031C750FF90269
:100036002128F80775080318750FF907F00DF10D5B
:10004600FC0B102870182D287408F807750803187B
:08005600750FF9070000080016
:0E005E00831203132B088A002A088200080070
:10006C002F208A110A128000840AAA0A0319AB0AEB
:08007C00F003031D3628080003
:10008400831203137408003A031D51287508003ABB
:10009400031D5128FF30F0007F30F100AA2883129D
:1000A4000313FD01F901F801710870040319003408
:1000B40071087506FA00FA1BFD09FB01F51F672894
:1000C400F409F509F40A0319F50AF11F6E28F00979
:1000D400F109F00A0319F10A71087504FA00FA1B10
:1000E400832803207B189628FD1F0034F009F109AA
:1000F400F00A0319F10AF809F909F80A0319F90AC7
:100104000034F51F9228F11B8E287108F90070083D
:10011400F800F101F0017628F101F001F00A003451
:10012400F109F009FB0A7328F80A0319F90A74089B
:100134007802031D762875087902031D7628F901D3
:10014400F801F00A0319F10AF11F76280000FF34C0
:020154000800A1
:10015600C03083120313A000F930A100A430A2001E
:10016600B030A3009930A4009230A5008230A600DA
:10017600F830A7008030A8009030A900B201B30182
:1001860083168601831286018316880183128801ED
:100196000A30F4000030F5003208F0003308F100B0
:1001A60042207008B4007108B5003408AE00350866
:1001B600AF000A30F4000030F5003208F0003308D2
:1001C600F10042207808F0007908F1007008B000CC
:1001D6007108B1003408203E840000088600013012
:1001E600AC000030AD008030F00080302D0670028B
:1001F600031DFF282C08193C031C252908142E086A
:10020600203E8400000886001A30FC00F830FD000D
:10021600FD0B0B29FC0B0B29000008108814300875
:10022600203E8400000886001A30FC00F830FD00ED
:10023600FD0B1B29FC0B1B2900008810AC0A0319B7
:10024600AD0AF628B20A0319B30A6430F400003086
:10025600F5003208F0003308F10042207808F0007B
:100266007908F1007008B2007108B300CB283A296A
:02400E004A2F37
:00000001FF
