:020000000328D3
:10000600831603138601FF308800831286010615C6
:100016008615081C20280230FB000430FC00BA308C
:10002600FD00FD0B1428FC0B1428FB0B1428000004
:10003600081C2028061486100615881C3228023053
:10004600FB000430FC00BA30FD00FD0B2828FC0B39
:100056002828FB0B28280000881C32280611081DBA
:1000660046280230FB000430FC00BA30FD00FD0BD0
:100076003A28FC0B3A28FB0B3A280000081D4628B4
:10008600061086140615061C4B28061D4B285128FB
:10009600861C5028061D50285128652886111A30BE
:1000A600FC00F830FD00FD0B5628FC0B562800001E
:1000B60086151A30FC00F830FD00FD0B6028FC0B9D
:0800C600602800000C286628E8
:02400E004A2F37
:00000001FF
