:02000000AB282B
:10000600710DF80DF90D7408F8027508031C750FCB
:10001600F902F00DF10D0F30FC00710DF80DF90D20
:100026007408701C1C28F8027508031C750FF90269
:100036002128F80775080318750FF907F00DF10D5B
:10004600FC0B102870182D287408F807750803187B
:08005600750FF9070000080016
:0E005E00831203132B088A002A088200080070
:10006C002F208A110A128000840AAA0A0319AB0AEB
:08007C00F003031D3628080003
:10008400831203137408003A031D51287508003ABB
:10009400031D5128FF30F0007F30F100AA2883129D
:1000A4000313FD01F901F801710870040319003408
:1000B40071087506FA00FA1BFD09FB01F51F672894
:1000C400F409F509F40A0319F50AF11F6E28F00979
:1000D400F109F00A0319F10A71087504FA00FA1B10
:1000E400832803207B189628FD1F0034F009F109AA
:1000F400F00A0319F10AF809F909F80A0319F90AC7
:100104000034F51F9228F11B8E287108F90070083D
:10011400F800F101F0017628F101F001F00A003451
:10012400F109F009FB0A7328F80A0319F90A74089B
:100134007802031D762875087902031D7628F901D3
:10014400F801F00A0319F10AF11F76280000FF34C0
:020154000800A1
:10015600C03083120313A000F930A100A430A2001E
:10016600B030A3009930A4009230A5008230A600DA
:10017600F830A7008030A8009030A900AE01AF018A
:1001860083168601831286018316870183128701EF
:10019600FF30831688000A30F4000030F500831221
:1001A6002E08F0002F08F10042207008B0007108F8
:1001B600B1000A30F4000030F5002E08F0002F08D8
:1001C600F10042207808F0007908F1007008AC00D0
:1001D6007108AD003008203EF00070088400000869
:1001E6008600071470088400000886001A30FC0098
:1001F600F830FD00FD0BFD28FC0BFD280000071064
:1002060087142C08203E8400000886001A30FC0063
:10021600F830FD00FD0B0D29FC0B0D2900008710A1
:10022600081C32290230FB000430FC00BA30FD0005
:10023600FD0B1B29FC0B1B29FB0B1B290000081CB3
:10024600322980302F06F00080307002031D2D29E0
:1002560063302E0203183229AE0A0319AF0A881C2E
:1002660052290230FB000430FC00BA30FD00FD0BC1
:100276003A29FC0B3A29FB0B3A290000881C522923
:100286008030F00080302F067002031D4C292E08A6
:10029600003C031852290130AE02031CAF03CE28DE
:0202A6005329DA
:02400E004A2F37
:00000001FF
