:020000001628C0
:0E0006008312031323088A00220882000800D8
:1000140003208A110A128000840AA20A0319A30A7F
:08002400F003031D0A28080087
:10002C0083120313A001A10183168601831286019A
:10003C0080302106F00080307002031D2728033029
:10004C00200203185D2886170B30FB002630FC00BD
:10005C005D30FD00FD0B3028FC0B3028FB0B3028ED
:10006C0000000000861306170B30FB002630FC0046
:10007C005D30FD00FD0B4028FC0B4028FB0B40289D
:10008C0000000000061386160B30FB002630FC0027
:10009C005D30FD00FD0B5028FC0B5028FB0B50284D
:1000AC00000000008612A00A0319A10A1E285D2870
:02400E004A2F37
:00000001FF
